{
  "abi": [
    {
      "anonymous": false,
      "inputs": [
        {
          "indexed": true,
          "internalType": "address",
          "name": "user",
          "type": "address"
        },
        {
          "indexed": true,
          "internalType": "uint256",
          "name": "questionIndex",
          "type": "uint256"
        },
        {
          "indexed": false,
          "internalType": "string",
          "name": "answerText",
          "type": "string"
        }
      ],
      "name": "AnswerAdded",
      "type": "event"
    },
    {
      "anonymous": false,
      "inputs": [
        {
          "indexed": true,
          "internalType": "uint256",
          "name": "questionIndex",
          "type": "uint256"
        },
        {
          "indexed": false,
          "internalType": "uint256",
          "name": "totalAmount",
          "type": "uint256"
        }
      ],
      "name": "PotDistributed",
      "type": "event"
    },
    {
      "anonymous": false,
      "inputs": [
        {
          "indexed": true,
          "internalType": "uint256",
          "name": "questionIndex",
          "type": "uint256"
        },
        {
          "indexed": false,
          "internalType": "uint256",
          "name": "pot",
          "type": "uint256"
        }
      ],
      "name": "PotUpdated",
      "type": "event"
    },
    {
      "anonymous": false,
      "inputs": [
        {
          "indexed": true,
          "internalType": "address",
          "name": "user",
          "type": "address"
        },
        {
          "indexed": true,
          "internalType": "uint256",
          "name": "questionIndex",
          "type": "uint256"
        },
        {
          "indexed": false,
          "internalType": "string",
          "name": "questionText",
          "type": "string"
        }
      ],
      "name": "QuestionPosted",
      "type": "event"
    },
    {
      "stateMutability": "payable",
      "type": "fallback"
    },
    {
      "inputs": [
        {
          "internalType": "uint256",
          "name": "questionIndex",
          "type": "uint256"
        },
        {
          "internalType": "string",
          "name": "_answerText",
          "type": "string"
        }
      ],
      "name": "addAnswer",
      "outputs": [],
      "stateMutability": "payable",
      "type": "function"
    },
    {
      "inputs": [],
      "name": "answerFee",
      "outputs": [
        {
          "internalType": "uint256",
          "name": "",
          "type": "uint256"
        }
      ],
      "stateMutability": "view",
      "type": "function"
    },
    {
      "inputs": [
        {
          "internalType": "address",
          "name": "",
          "type": "address"
        }
      ],
      "name": "balances",
      "outputs": [
        {
          "internalType": "uint256",
          "name": "",
          "type": "uint256"
        }
      ],
      "stateMutability": "view",
      "type": "function"
    },
    {
      "inputs": [
        {
          "internalType": "uint256",
          "name": "questionIndex",
          "type": "uint256"
        }
      ],
      "name": "distributePot",
      "outputs": [],
      "stateMutability": "nonpayable",
      "type": "function"
    },
    {
      "inputs": [
        {
          "internalType": "uint256",
          "name": "questionIndex",
          "type": "uint256"
        },
        {
          "internalType": "uint256",
          "name": "answerIndex",
          "type": "uint256"
        }
      ],
      "name": "getAnswer",
      "outputs": [
        {
          "internalType": "string",
          "name": "",
          "type": "string"
        }
      ],
      "stateMutability": "view",
      "type": "function"
    },
    {
      "inputs": [
        {
          "internalType": "uint256",
          "name": "questionIndex",
          "type": "uint256"
        },
        {
          "internalType": "uint256",
          "name": "answerIndex",
          "type": "uint256"
        }
      ],
      "name": "getAnswerAddress",
      "outputs": [
        {
          "internalType": "address",
          "name": "",
          "type": "address"
        }
      ],
      "stateMutability": "view",
      "type": "function"
    },
    {
      "inputs": [
        {
          "internalType": "uint256",
          "name": "questionIndex",
          "type": "uint256"
        }
      ],
      "name": "getMostCommonAnswer",
      "outputs": [
        {
          "internalType": "string",
          "name": "",
          "type": "string"
        }
      ],
      "stateMutability": "view",
      "type": "function"
    },
    {
      "inputs": [
        {
          "internalType": "uint256",
          "name": "questionIndex",
          "type": "uint256"
        }
      ],
      "name": "getMostCommonAnswerUsers",
      "outputs": [
        {
          "internalType": "address[]",
          "name": "",
          "type": "address[]"
        }
      ],
      "stateMutability": "view",
      "type": "function"
    },
    {
      "inputs": [
        {
          "internalType": "uint256",
          "name": "index",
          "type": "uint256"
        }
      ],
      "name": "getQuestion",
      "outputs": [
        {
          "internalType": "string",
          "name": "",
          "type": "string"
        }
      ],
      "stateMutability": "view",
      "type": "function"
    },
    {
      "inputs": [],
      "name": "getQuestionCount",
      "outputs": [
        {
          "internalType": "uint256",
          "name": "",
          "type": "uint256"
        }
      ],
      "stateMutability": "view",
      "type": "function"
    },
    {
      "inputs": [
        {
          "internalType": "uint256",
          "name": "index",
          "type": "uint256"
        }
      ],
      "name": "getQuestionPot",
      "outputs": [
        {
          "internalType": "uint256",
          "name": "",
          "type": "uint256"
        }
      ],
      "stateMutability": "view",
      "type": "function"
    },
    {
      "inputs": [
        {
          "internalType": "string",
          "name": "_questionText",
          "type": "string"
        }
      ],
      "name": "postQuestion",
      "outputs": [],
      "stateMutability": "payable",
      "type": "function"
    },
    {
      "inputs": [
        {
          "internalType": "uint256",
          "name": "",
          "type": "uint256"
        },
        {
          "internalType": "uint256",
          "name": "",
          "type": "uint256"
        }
      ],
      "name": "questionAnswers",
      "outputs": [
        {
          "internalType": "address",
          "name": "user",
          "type": "address"
        },
        {
          "internalType": "string",
          "name": "answerText",
          "type": "string"
        }
      ],
      "stateMutability": "view",
      "type": "function"
    },
    {
      "inputs": [],
      "name": "questionFee",
      "outputs": [
        {
          "internalType": "uint256",
          "name": "",
          "type": "uint256"
        }
      ],
      "stateMutability": "view",
      "type": "function"
    },
    {
      "inputs": [
        {
          "internalType": "uint256",
          "name": "",
          "type": "uint256"
        }
      ],
      "name": "questions",
      "outputs": [
        {
          "internalType": "address",
          "name": "user",
          "type": "address"
        },
        {
          "internalType": "string",
          "name": "questionText",
          "type": "string"
        },
        {
          "internalType": "uint256",
          "name": "answerCount",
          "type": "uint256"
        },
        {
          "internalType": "uint256",
          "name": "pot",
          "type": "uint256"
        }
      ],
      "stateMutability": "view",
      "type": "function"
    },
    {
      "inputs": [
        {
          "internalType": "address",
          "name": "recipient",
          "type": "address"
        },
        {
          "internalType": "uint256",
          "name": "amount",
          "type": "uint256"
        }
      ],
      "name": "sendEther",
      "outputs": [],
      "stateMutability": "nonpayable",
      "type": "function"
    },
    {
      "stateMutability": "payable",
      "type": "receive"
    }
  ],
  "bytecode": {
    "object": "0x6080604052600a600155600560025534801561001a57600080fd5b506119d78061002a6000396000f3fe6080604052600436106100eb5760003560e01c80638a55b54d11610084578063c1756a2c11610056578063c1756a2c1461029e578063c29d9d2f146102be578063db88176f146102f6578063dd41cc2f1461031657005b80638a55b54d14610232578063937d76e114610248578063a22c1bc914610268578063bd12b4b51461028857005b80634e7210ec116100bd5780634e7210ec146101b257806365bf05ff146101df5780637116cad81461020c5780637491995a1461021f57005b806302d98349146100f457806327e235e3146101275780632e8093331461015457806331b1b9781461018257005b366100f257005b005b34801561010057600080fd5b5061011461010f36600461143e565b61032b565b6040519081526020015b60405180910390f35b34801561013357600080fd5b50610114610142366004611473565b60036020526000908152604090205481565b34801561016057600080fd5b5061017461016f366004611495565b610385565b60405161011e9291906114fd565b34801561018e57600080fd5b506101a261019d36600461143e565b610455565b60405161011e9493929190611529565b3480156101be57600080fd5b506101d26101cd36600461143e565b610523565b60405161011e9190611560565b3480156101eb57600080fd5b506101ff6101fa36600461143e565b61083f565b60405161011e9190611573565b6100f261021a366004611663565b610c33565b6100f261022d366004611698565b610d9a565b34801561023e57600080fd5b5061011460015481565b34801561025457600080fd5b506100f261026336600461143e565b610f86565b34801561027457600080fd5b506101d2610283366004611495565b61112c565b34801561029457600080fd5b5061011460025481565b3480156102aa57600080fd5b506100f26102b93660046116df565b61126b565b3480156102ca57600080fd5b506102de6102d9366004611495565b6112a9565b6040516001600160a01b03909116815260200161011e565b34801561030257600080fd5b506101d261031136600461143e565b611361565b34801561032257600080fd5b50600054610114565b6000805482106103565760405162461bcd60e51b815260040161034d90611709565b60405180910390fd5b600080838154811061036a5761036a611739565b60009182526020909120600360049092020101549392505050565b600460205281600052604060002081815481106103a157600080fd5b6000918252602090912060029091020180546001820180546001600160a01b0390921694509192506103d29061174f565b80601f01602080910402602001604051908101604052809291908181526020018280546103fe9061174f565b801561044b5780601f106104205761010080835404028352916020019161044b565b820191906000526020600020905b81548152906001019060200180831161042e57829003601f168201915b5050505050905082565b6000818154811061046557600080fd5b6000918252602090912060049091020180546001820180546001600160a01b039092169350906104949061174f565b80601f01602080910402602001604051908101604052809291908181526020018280546104c09061174f565b801561050d5780601f106104e25761010080835404028352916020019161050d565b820191906000526020600020905b8154815290600101906020018083116104f057829003601f168201915b5050505050908060020154908060030154905084565b60005460609082106105475760405162461bcd60e51b815260040161034d90611709565b60008281526004602052604081205467ffffffffffffffff81111561056e5761056e6115c0565b604051908082528060200260200182016040528015610597578160200160208202803683370190505b50905060005b815181101561062c5760008481526004602052604090208054829081106105c6576105c6611739565b90600052602060002090600202016001016040516020016105e79190611789565b6040516020818303038152906040528051906020012082828151811061060f5761060f611739565b60209081029190910101528061062481611815565b91505061059d565b506000815167ffffffffffffffff811115610649576106496115c0565b604051908082528060200260200182016040528015610672578160200160208202803683370190505b50905060005b82518110156107165760005b83518110156107035783818151811061069f5761069f611739565b60200260200101518483815181106106b9576106b9611739565b6020026020010151036106f1578282815181106106d8576106d8611739565b6020026020010180518091906106ed90611815565b9052505b806106fb81611815565b915050610684565b508061070e81611815565b915050610678565b5060008060005b8351811015610779578284828151811061073957610739611739565b602002602001015111156107675783818151811061075957610759611739565b602002602001015192508091505b8061077181611815565b91505061071d565b50600086815260046020526040902080548290811061079a5761079a611739565b906000526020600020906002020160010180546107b69061174f565b80601f01602080910402602001604051908101604052809291908181526020018280546107e29061174f565b801561082f5780601f106108045761010080835404028352916020019161082f565b820191906000526020600020905b81548152906001019060200180831161081257829003601f168201915b5050505050945050505050919050565b60005460609082106108635760405162461bcd60e51b815260040161034d90611709565b60008281526004602052604081205467ffffffffffffffff81111561088a5761088a6115c0565b6040519080825280602002602001820160405280156108b3578160200160208202803683370190505b50905060005b81518110156109485760008481526004602052604090208054829081106108e2576108e2611739565b90600052602060002090600202016001016040516020016109039190611789565b6040516020818303038152906040528051906020012082828151811061092b5761092b611739565b60209081029190910101528061094081611815565b9150506108b9565b506000815167ffffffffffffffff811115610965576109656115c0565b60405190808252806020026020018201604052801561098e578160200160208202803683370190505b50905060005b8251811015610a325760005b8351811015610a1f578381815181106109bb576109bb611739565b60200260200101518483815181106109d5576109d5611739565b602002602001015103610a0d578282815181106109f4576109f4611739565b602002602001018051809190610a0990611815565b9052505b80610a1781611815565b9150506109a0565b5080610a2a81611815565b915050610994565b5060008060005b8351811015610a955782848281518110610a5557610a55611739565b60200260200101511115610a8357838181518110610a7557610a75611739565b602002602001015192508091505b80610a8d81611815565b915050610a39565b506000838281518110610aaa57610aaa611739565b602002602001015167ffffffffffffffff811115610aca57610aca6115c0565b604051908082528060200260200182016040528015610af3578160200160208202803683370190505b50905060005b8151811015610c285760005b600089815260046020526040902054811015610c15576000898152600460205260409020805482908110610b3b57610b3b611739565b9060005260206000209060020201600101604051602001610b5c9190611789565b60405160208183030381529060405280519060200120878581518110610b8457610b84611739565b602002602001015103610c03576000898152600460205260409020805482908110610bb157610bb1611739565b600091825260209091206002909102015483516001600160a01b0390911690849084908110610be257610be2611739565b60200260200101906001600160a01b031690816001600160a01b0316815250505b80610c0d81611815565b915050610b05565b5080610c2081611815565b915050610af9565b509695505050505050565b600154341015610c855760405162461bcd60e51b815260206004820152601d60248201527f4d7573742073656e642031302077656920666f72205175657374696f6e000000604482015260640161034d565b60408051608081018252338152602081018381526000928201839052346060830152825460018101845592805281517f290decd9548b62a8d60345a988386fc84ba6bc95484008f6362f93160ef3e563600490940293840180546001600160a01b0319166001600160a01b039092169190911781559051919283927f290decd9548b62a8d60345a988386fc84ba6bc95484008f6362f93160ef3e56490910190610d2f908261187d565b5060408201516002820155606090910151600390910155600054610d559060019061193d565b336001600160a01b03167f66753d00421ca0d31c04324639a65abf9a56dc380afb7c74681b196b03046e2684604051610d8e9190611560565b60405180910390a35050565b6000548210610dbb5760405162461bcd60e51b815260040161034d90611709565b600254341015610e0d5760405162461bcd60e51b815260206004820152601a60248201527f4d7573742073656e6420352077656920666f7220616e73776572000000000000604482015260640161034d565b604080518082018252338152602080820184815260008681526004835293842080546001808201835591865292909420835160029093020180546001600160a01b0319166001600160a01b03909316929092178255519192839290820190610e75908261187d565b50505060008381548110610e8b57610e8b611739565b600091825260208220600260049092020101805491610ea983611815565b91905055503460008481548110610ec257610ec2611739565b90600052602060002090600402016003016000828254610ee29190611950565b9091555050604051839033907f112fdb68c537f971e25250afe98cc8962c3a675a52ec7b06091dfb1989e4ed8490610f1b908690611560565b60405180910390a3827fbb8de4b31ea8d8613522398d0bf931eac3fa244872233c6e67184b0c66284e7360008581548110610f5857610f58611739565b906000526020600020906004020160030154604051610f7991815260200190565b60405180910390a2505050565b6000548110610fa75760405162461bcd60e51b815260040161034d90611709565b6000808281548110610fbb57610fbb611739565b9060005260206000209060040201905060008160030154116110165760405162461bcd60e51b81526020600482015260146024820152734e6f20706f7420746f206469737472696275746560601b604482015260640161034d565b60006110218361083f565b8051909150806110735760405162461bcd60e51b815260206004820152601c60248201527f4e6f2077696e6e65727320746f206469737472696275746520706f7400000000604482015260640161034d565b60008184600301546110859190611979565b90506000828560030154611099919061198d565b905060005b838110156110db576110c98582815181106110bb576110bb611739565b60200260200101518461126b565b806110d381611815565b91505061109e565b506110e6338261126b565b60006003860181905560405190815286907fecd72fc9d43686fa17d52a6c66b1196d6677f177be51f98b5710166d9334a23c9060200160405180910390a2505050505050565b60005460609083106111505760405162461bcd60e51b815260040161034d90611709565b60008381526004602052604090205482106111a45760405162461bcd60e51b8152602060048201526014602482015273092dcecc2d8d2c840c2dce6eecae440d2dcc8caf60631b604482015260640161034d565b60008381526004602052604081208054849081106111c4576111c4611739565b906000526020600020906002020190508060010180546111e39061174f565b80601f016020809104026020016040519081016040528092919081815260200182805461120f9061174f565b801561125c5780601f106112315761010080835404028352916020019161125c565b820191906000526020600020905b81548152906001019060200180831161123f57829003601f168201915b50505050509150505b92915050565b60405182906001600160a01b0382169083156108fc029084906000818181858888f193505050501580156112a3573d6000803e3d6000fd5b50505050565b6000805483106112cb5760405162461bcd60e51b815260040161034d90611709565b600083815260046020526040902054821061131f5760405162461bcd60e51b8152602060048201526014602482015273092dcecc2d8d2c840c2dce6eecae440d2dcc8caf60631b604482015260640161034d565b600083815260046020526040812080548490811061133f5761133f611739565b60009182526020909120600290910201546001600160a01b0316949350505050565b60005460609082106113855760405162461bcd60e51b815260040161034d90611709565b600080838154811061139957611399611739565b906000526020600020906004020190508060010180546113b89061174f565b80601f01602080910402602001604051908101604052809291908181526020018280546113e49061174f565b80156114315780601f1061140657610100808354040283529160200191611431565b820191906000526020600020905b81548152906001019060200180831161141457829003601f168201915b5050505050915050919050565b60006020828403121561145057600080fd5b5035919050565b80356001600160a01b038116811461146e57600080fd5b919050565b60006020828403121561148557600080fd5b61148e82611457565b9392505050565b600080604083850312156114a857600080fd5b50508035926020909101359150565b6000815180845260005b818110156114dd576020818501810151868301820152016114c1565b506000602082860101526020601f19601f83011685010191505092915050565b6001600160a01b0383168152604060208201819052600090611521908301846114b7565b949350505050565b6001600160a01b038516815260806020820181905260009061154d908301866114b7565b6040830194909452506060015292915050565b60208152600061148e60208301846114b7565b6020808252825182820181905260009190848201906040850190845b818110156115b45783516001600160a01b03168352928401929184019160010161158f565b50909695505050505050565b634e487b7160e01b600052604160045260246000fd5b600082601f8301126115e757600080fd5b813567ffffffffffffffff80821115611602576116026115c0565b604051601f8301601f19908116603f0116810190828211818310171561162a5761162a6115c0565b8160405283815286602085880101111561164357600080fd5b836020870160208301376000602085830101528094505050505092915050565b60006020828403121561167557600080fd5b813567ffffffffffffffff81111561168c57600080fd5b611521848285016115d6565b600080604083850312156116ab57600080fd5b82359150602083013567ffffffffffffffff8111156116c957600080fd5b6116d5858286016115d6565b9150509250929050565b600080604083850312156116f257600080fd5b6116fb83611457565b946020939093013593505050565b602080825260169082015275092dcecc2d8d2c840e2eacae6e8d2dedc40d2dcc8caf60531b604082015260600190565b634e487b7160e01b600052603260045260246000fd5b600181811c9082168061176357607f821691505b60208210810361178357634e487b7160e01b600052602260045260246000fd5b50919050565b60008083546117978161174f565b600182811680156117af57600181146117c4576117f3565b60ff19841687528215158302870194506117f3565b8760005260208060002060005b858110156117ea5781548a8201529084019082016117d1565b50505082870194505b50929695505050505050565b634e487b7160e01b600052601160045260246000fd5b600060018201611827576118276117ff565b5060010190565b601f82111561187857600081815260208120601f850160051c810160208610156118555750805b601f850160051c820191505b8181101561187457828155600101611861565b5050505b505050565b815167ffffffffffffffff811115611897576118976115c0565b6118ab816118a5845461174f565b8461182e565b602080601f8311600181146118e057600084156118c85750858301515b600019600386901b1c1916600185901b178555611874565b600085815260208120601f198616915b8281101561190f578886015182559484019460019091019084016118f0565b508582101561192d5787850151600019600388901b60f8161c191681555b5050505050600190811b01905550565b81810381811115611265576112656117ff565b80820180821115611265576112656117ff565b634e487b7160e01b600052601260045260246000fd5b60008261198857611988611963565b500490565b60008261199c5761199c611963565b50069056fea264697066735822122094eb226ba06dd61ae60bb86936bda49d5e40511a0410fe4ade9eacb6f24345b864736f6c63430008140033",
    "linkReferences": {}
  },
  "methodIdentifiers": {
    "addAnswer(uint256,string)": "7491995a",
    "answerFee()": "bd12b4b5",
    "balances(address)": "27e235e3",
    "distributePot(uint256)": "937d76e1",
    "getAnswer(uint256,uint256)": "a22c1bc9",
    "getAnswerAddress(uint256,uint256)": "c29d9d2f",
    "getMostCommonAnswer(uint256)": "4e7210ec",
    "getMostCommonAnswerUsers(uint256)": "65bf05ff",
    "getQuestion(uint256)": "db88176f",
    "getQuestionCount()": "dd41cc2f",
    "getQuestionPot(uint256)": "02d98349",
    "postQuestion(string)": "7116cad8",
    "questionAnswers(uint256,uint256)": "2e809333",
    "questionFee()": "8a55b54d",
    "questions(uint256)": "31b1b978",
    "sendEther(address,uint256)": "c1756a2c"
  },
  "id": 19
}